:100000000C9462000C948A000C948A000C948A0070
:100010000C948A000C948A000C948A000C948A0038
:100020000C948A000C948A000C948A000C948A0028
:100030000C948A000C948A000C948A000C948A0018
:100040000C9467020C948A000C94D7020C94B102B1
:100050000C948A000C948A000C948A000C948A00F8
:100060000C948A000C948A000000000023002600F3
:10007000290000000000240027002A0000000000E2
:10008000250028002B0004040404040404040202D4
:100090000202020203030303030301020408102007
:1000A0004080010204081020010204081020000012
:1000B0000008000201000003040700000000000027
:1000C00000009A0411241FBECFEFD8E0DEBFCDBFE1
:1000D00011E0A0E0B1E0EEE9F9E002C005900D9278
:1000E000AC31B107D9F721E0ACE1B1E001C01D921C
:1000F000A63CB207E1F710E0C2E6D0E004C02197C9
:10010000FE010E94C704C136D107C9F70E94090346
:100110000C94CD040C940000833081F028F48130DD
:1001200099F08230A9F008958730A9F08830C9F09D
:100130008430B1F4809180008F7D03C08091800075
:100140008F7780938000089584B58F7784BD08955C
:1001500084B58F7DFBCF8091B0008F778093B00006
:1001600008958091B0008F7DF9CF1F93CF93DF93D7
:10017000282F30E0F901E255FF4F8491F901E6564E
:10018000FF4FD491F901EA57FF4FC491CC23A9F056
:10019000162F81110E948C00EC2FF0E0EE0FFF1F54
:1001A000E458FF4FA591B4918FB7F894EC911111D9
:1001B00008C0D095DE23DC938FBFDF91CF911F91D4
:1001C0000895DE2BF8CFCF93DF9390E0FC01E65645
:1001D000FF4F24918A579F4FFC0184918823D1F0CF
:1001E00090E0880F991FFC01EE58FF4FA591B49144
:1001F000FC01E458FF4FC591D491623071F49FB770
:10020000F8943C91822F809583238C93E8812E2B48
:1002100028839FBFDF91CF9108958FB7F894EC9119
:100220002E2B2C938FBFF6CFAF92BF92CF92DF923F
:10023000EF92FF920F931F93CF93DF936C017B019B
:100240008B01040F151FEB015E01AE18BF08C0172C
:10025000D10759F06991D601ED91FC910190F0819F
:10026000E02DC6010995892B79F7C501DF91CF9162
:100270001F910F91FF90EF90DF90CF90BF90AF90C4
:100280000895FC01538D448D252F30E0842F90E09C
:10029000821B930B541710F0CF9608950197089581
:1002A000FC01918D828D981761F0A28DAE0FBF2F4A
:1002B000B11D5D968C91928D9F5F9F73928F90E0A0
:1002C00008958FEF9FEF0895FC01918D828D98170F
:1002D00031F0828DE80FF11D858D90E008958FEF4C
:1002E0009FEF0895FC01918D228D892F90E0805C15
:1002F0009F4F821B91098F739927089580E291E0A7
:100300000E94720121E0892B09F420E0822F0895D8
:1003100080E090E0892B29F00E947E0181110C94ED
:1003200000000895FC01A48DA80FB92FB11DA35A98
:10033000BF4F2C91848D90E001968F739927848F05
:10034000A689B7892C93A089B1898C918370806428
:100350008C93938D848D981306C00288F389E02DC9
:1003600080818F7D80830895EF92FF920F931F937A
:10037000CF93DF93EC0181E0888F9B8D8C8D981358
:100380001AC0E889F989808185FF15C09FB7F89464
:10039000EE89FF896083E889F989808183708064B0
:1003A00080839FBF81E090E0DF91CF911F910F91FB
:1003B000FF90EF900895F62E0B8D10E00F5F1F4F0A
:1003C0000F731127E02E8C8D8E110CC00FB607FC19
:1003D000FACFE889F989808185FFF5CFCE010E94A7
:1003E0009201F1CFEB8DEC0FFD2FF11DE35AFF4F82
:1003F000F0829FB7F8940B8FEA89FB898081806235
:10040000CFCFCF93DF93EC01888D8823B9F0AA89F1
:10041000BB89E889F9898C9185FD03C0808186FDBF
:100420000DC00FB607FCF7CF8C9185FFF2CF80810E
:1004300085FFEDCFCE010E949201E9CFDF91CF91F0
:1004400008950F931F93CF93DF93D82F16EF180FB4
:1004500010931C01282F30E0F901E255FF4F8491E1
:10046000F901E656FF4F0491F901EA57FF4FC49195
:10047000CC2379F081110E948C00EC2FF0E0EE0F7C
:10048000FF1FE859FF4FA591B491EC910E2381E035
:1004900009F480E0E12FF0E0E050FF4F90818917F0
:1004A00089F08083D09306018093070145E050E0F6
:1004B00064E071E080E291E0DF91CF911F910F91B4
:1004C0000C941401DF91CF911F910F9108951F9209
:1004D0000F920FB60F9211242F933F938F939F93F8
:1004E000AF93BF938091C2019091C301A091C401C9
:1004F000B091C5013091C10123E0230F2D3758F58C
:100500000196A11DB11D2093C1018093C20190935A
:10051000C301A093C401B093C5018091BD01909126
:10052000BE01A091BF01B091C0010196A11DB11DF6
:100530008093BD019093BE01A093BF01B093C00111
:10054000BF91AF919F918F913F912F910F900FBECF
:100550000F901F90189526E8230F0296A11DB11D3C
:10056000D2CF1F920F920FB60F9211242F933F9369
:100570004F935F936F937F938F939F93AF93BF93AB
:10058000EF93FF9380E291E00E949201FF91EF913F
:10059000BF91AF919F918F917F916F915F914F919B
:1005A0003F912F910F900FBE0F901F9018951F92A3
:1005B0000F920FB60F9211242F938F939F93EF9367
:1005C000FF93E0913001F09131018081E09136019B
:1005D000F091370182FD1BC09081809139018F5FBE
:1005E0008F7320913A01821741F0E0913901F0E0D8
:1005F000E05EFE4F958F80933901FF91EF919F91BF
:100600008F912F910F900FBE0F901F9018958081A2
:10061000F4CF789484B5826084BD84B5816084BD54
:1006200085B5826085BD85B5816085BD80916E0090
:10063000816080936E0010928100809181008260C1
:1006400080938100809181008160809381008091FE
:1006500080008160809380008091B10084608093ED
:10066000B1008091B00081608093B00080917A00E9
:10067000846080937A0080917A00826080937A000F
:1006800080917A00816080937A0080917A008068FE
:1006900080937A001092C10061E082E00E94E30042
:1006A00061E082E00E94B50061E083E00E94E30027
:1006B00061E083E00E94B50061E084E00E94E30015
:1006C00061E084E00E94B50061E085E00E94E30003
:1006D00061E085E00E94B50061E086E00E94E300F1
:1006E00061E086E00E94B50061E087E00E94E300DF
:1006F00061E087E00E94B50061E088E00E94E300CD
:1007000061E088E00E94B50061E089E00E94E300BA
:1007100061E089E00E94E30060E089E00E94B500AA
:1007200062E08AE00E94E30062E08BE00E94E30066
:1007300062E08CE00E94E30062E08DE00E94E30052
:10074000E0913001F091310182E08083E0912C0151
:10075000F0912D011082E0912E01F0912F0180E1A6
:10076000808310923801E0913401F091350186E0E8
:100770008083E0913201F091330180818061808338
:10078000E0913201F0913301808188608083E091B3
:100790003201F0913301808180688083E0913201E1
:1007A000F091330180818F7D808387EBE82E80E09C
:1007B000F82E90E0C92E90E0D92E0FEF109205018F
:1007C0008AE00E9421028BE00E9421028CE00E94BC
:1007D00021028DE00E94210280E291E00E947201DC
:1007E0000597ACF00093050180E291E00E94500172
:1007F00085359105B1F0009306010093070145E0AE
:1008000050E064E071E080E291E00E941401C114C4
:10081000D104A1F20E947E01882381F20E9400008F
:10082000CDCF80E291E00E945001B82E80931F014D
:100830008FEF8B0D873CF8F680E291E00E9450012B
:10084000182F80931E018EEF810F8830A0F680E272
:1008500091E00E945001EC0180931D0180E291E043
:100860000E9450018A3A910531F6B092050161E08B
:10087000193009F05AC089E00E94E300C11105C097
:1008800060E089E00E94B50028C09E0133272F3F19
:10089000310511F461E0F5CFF7018491833059F10E
:1008A00040F48130B1F0823009F12038310594F7FD
:1008B000E7CF873051F1883081F18430B1F78091F2
:1008C000800080628093800030938B0020938A00A8
:1008D00004C084B5806884BDC7BD80911E0180932B
:1008E000060180911D018093070189CF84B5806244
:1008F00084BDC8BDF2CF8091800080688093800065
:100900003093890020938800E8CF8091B000806800
:100910008093B000C093B300E0CF8091B0008062BC
:100920008093B000C093B400D8CFC11101C060E083
:10093000812FA8CFE0E2F1E01382128288EE93E0EB
:10094000A0E0B0E084839583A683B7838DE091E037
:100950009183808385EC90E09587848784EC90E098
:100960009787868780EC90E0918B808B81EC90E07C
:10097000938B828B82EC90E0958B848B86EC90E05D
:10098000978B868B118E128E138E148E0895EE0F18
:0E099000FF1F0590F491E02D0994F894FFCF1D
:10099E00FFFFFFFF55FFFFFFAA00000000B4011488
:0C09AE00014101010272015001640100CE
:00000001FF
